:020000040800F2
:1000000000280020DD0500086D05000873050008C4
:10001000790500087F05000885050008000000003C
:100020000000000000000000000000008B05000838
:100030009705000800000000A3050008AF050008B0
:1000400025060008250600082506000825060008E4
:1000500025060008250600082506000825060008D4
:1000600025060008250600082506000825060008C4
:1000700025060008250600082506000825060008B4
:1000800025060008250600082506000825060008A4
:100090002506000825060008250600082506000894
:1000A0002506000825060008250600082506000884
:1000B00025060008250600080000000025060008A7
:1000C00025060008000000000000000025060008CA
:1000D00000000000BD050008250600080000000023
:1000E0002506000825060008250600080000000077
:1000F0000000000000000000000000000000000000
:0C01000000000000000000005FF808F1A3
:10010C0010B5054C237833B9044B13B10448AFF345
:10011C0000800123237010BD10000020000000009F
:10012C007C1F000808B5034B1BB103490348AFF310
:10013C00008008BD00000000140000207C1F000897
:10014C0080B500AF00F06AFA00F06EF800F0D2F85B
:10015C0000F0A6F801223049304801F0D6FA2E4BB7
:10016C001B78302B05D100224FF400512C4800F0A5
:10017C00EFFD294B1B78312B05D101224FF4005197
:10018C00274800F0E5FD244B1B78322B05D10022CB
:10019C004FF48051234800F0DBFD1F4B1B78332BB1
:1001AC0005D101224FF480511E4800F0D1FD1A4BAD
:1001BC001B78342B05D100224FF40051194800F064
:1001CC00C7FD154B1B78352B05D101224FF400517F
:1001DC00144800F0BDFD104B1B78362B05D10022C6
:1001EC004FF480410F4800F0B3FD0B4B1B78372BBD
:1001FC0005D101224FF480410A4800F0A9FD064BBD
:10020C001B78712BABD14FF40041064800F0B8FDC0
:10021C00014B7A221A70A2E77400002030000020F3
:10022C0000100140000C014080B590B000AF07F108
:10023C00180328220021184601F092FE3B1D0022D3
:10024C001A605A609A60DA601A610223BB6101235A
:10025C00BB621023FB6200237B6307F11803184673
:10026C0000F0A8FD0346002B01D000F0EDF80F23A1
:10027C007B600023BB600023FB6000233B610023F9
:10028C007B613B1D0021184601F014F80346002B3E
:10029C0001D000F0D9F800BF4037BD4680BD00004A
:1002AC0080B500AF114B124A1A60104B4FF4165226
:1002BC005A600E4B00229A600C4B0022DA600B4BFA
:1002CC0000221A61094B0C225A61084B00229A61D8
:1002DC00064B0022DA61054801F086F90346002B33
:1002EC0001D000F0B1F800BF80BD00BF300000208D
:1002FC000038014080B588B000AF07F11003002230
:10030C001A605A609A60DA60284B9B69274A43F05E
:10031C0010039361254B9B6903F01003FB60FB6892
:10032C00224B9B69214A43F0080393611F4B9B6945
:10033C0003F00803BB60BB681C4B9B691B4A43F072
:10034C0004039361194B9B6903F004037B607B6886
:10035C0000224FF40051164800F0FAFC00224FF432
:10036C007041144800F0F4FC4FF400533B6101233E
:10037C007B610023BB610223FB6107F1100319466B
:10038C000B4800F06BFB4FF470433B6101237B6126
:10039C000023BB610223FB6107F1100319460548DA
:1003AC0000F05CFB00BF2037BD4680BD0010024052
:1003BC0000100140000C014080B582B000AF7860A5
:1003CC007B680B4A93420ED10A4B01221A700A4BDE
:1003DC001B78002B07D0084B00221A70012207490A
:1003EC00034801F04EF900BF0837BD4680BD00BF81
:1003FC00300000202C0000200000002074000020A1
:10040C0080B582B000AF78607B680B4A93420ED106
:10041C000A4B01221A700A4B1B78002B07D0084B91
:10042C0000221A7001220749034801F06EF900BF3F
:10043C000837BD4680BD00BF300000200000002002
:10044C002C0000207400002080B400AF72B600BFF6
:10045C00FEE7000080B485B000AF154B9B69144AD1
:10046C0043F001039361124B9B6903F00103BB60E2
:10047C00BB680F4BDB690E4A43F08053D3610C4BC6
:10048C00DB6903F080537B607B680A4B5B68FB6025
:10049C00FB6823F0E063FB60FB6843F08063FB6068
:1004AC00044AFB68536000BF1437BD4680BC7047DC
:1004BC00001002400000014080B588B000AF7860A9
:1004CC0007F1100300221A605A609A60DA607B68A8
:1004DC001B68204A934239D11F4B9B691E4A43F437
:1004EC00804393611C4B9B6903F48043FB60FB6866
:1004FC00194B9B69184A43F004039361164B9B6993
:10050C0003F00403BB60BB684FF400733B61022330
:10051C007B610323FB6107F1100319460F4800F0C0
:10052C009DFA4FF480633B6100237B610023BB6128
:10053C0007F110031946094800F090FA0022002137
:10054C00252000F0A4F9252000F0BDF900BF2037CC
:10055C00BD4680BD0038014000100240000801403B
:10056C0080B400AFFEE780B400AFFEE780B400AF0C
:10057C00FEE780B400AFFEE780B400AFFEE780B4C6
:10058C0000AF00BFBD4680BC704780B400AF00BF59
:10059C00BD4680BC704780B400AF00BFBD4680BC78
:1005AC00704780B500AF00F07FF800BF80BD000041
:1005BC0080B500AF024801F0D9F800BF80BD00BF84
:1005CC003000002080B400AF00BFBD4680BC704737
:1005DC000C480D490D4A002302E0D458C450043392
:1005EC00C4188C42F9D30A4A0A4C002301E0136068
:1005FC000432A242FBD3FFF7E5FF01F08DFCFFF7BD
:10060C009FFD70470000002010000020C41F000850
:10061C00100000207C000020FEE7000080B500AF39
:10062C00084B1B68074A43F010031360032000F0CB
:10063C0023F90F2000F008F8FFF70CFF00231846F1
:10064C0080BD00BF0020024080B582B000AF786052
:10065C00124B1A68124B1B7819464FF47A73B3FB82
:10066C00F1F3B2FBF3F3184600F03BF90346002B11
:10067C0001D001230EE07B680F2B0AD80022796889
:10068C004FF0FF3000F003F9064A7B68136000233B
:10069C0000E0012318460837BD4680BD0400002049
:1006AC000C0000200800002080B400AF054B1B7824
:1006BC001A46054B1B681344034A136000BFBD4622
:1006CC0080BC70470C0000207800002080B400AF84
:1006DC00024B1B681846BD4680BC70477800002052
:1006EC0080B485B000AF78607B6803F00703FB60D3
:1006FC000C4BDB68BB60BA684FF6FF031340BB6062
:10070C00FB681A02BB68134343F0BF6343F4003326
:10071C00BB60044ABB68D36000BF1437BD4680BCC5
:10072C00704700BF00ED00E080B400AF044BDB6805
:10073C001B0A03F007031846BD4680BC704700BF78
:10074C0000ED00E080B483B000AF0346FB7197F975
:10075C000730002B0BDBFB7903F01F02064997F9DE
:10076C0007305B09012000FA02F241F8232000BF98
:10077C000C37BD4680BC704700E100E080B483B00C
:10078C0000AF03463960FB7197F90730002B0ADB89
:10079C003B68DAB20C4997F907301201D2B20B441C
:1007AC0083F800230AE03B68DAB20849FB7903F0CE
:1007BC000F03043B1201D2B20B441A7600BF0C3764
:1007CC00BD4680BC704700BF00E100E000ED00E0DA
:1007DC0080B489B000AFF860B9607A60FB6803F050
:1007EC000703FB61FB69C3F10703042B28BF042338
:1007FC00BB61FB690433062B02D9FB69033B00E0A8
:10080C0000237B614FF0FF32BB6902FA03F3DA433A
:10081C00BB681A407B699A404FF0FF317B6901FA43
:10082C0003F3D9437B680B40134318462437BD466A
:10083C0080BC704780B582B000AF78607B68013BAC
:10084C00B3F1807F01D301230FE00A4A7B68013B9F
:10085C0053600F214FF0FF30FFF790FF054B002244
:10086C009A60044B07221A60002318460837BD46CD
:10087C0080BD00BF10E000E080B582B000AF7860B2
:10088C007868FFF72DFF00BF0837BD4680BD80B5E7
:10089C0086B000AF0346B9607A60FB7300237B61BE
:1008AC00FFF742FF78617A68B9687869FFF790FFC3
:1008BC00024697F90F3011461846FFF75FFF00BF4D
:1008CC001837BD4680BD80B582B000AF0346FB71C2
:1008DC0097F907301846FFF735FF00BF0837BD46BC
:1008EC0080BD80B582B000AF78607868FFF7A2FF5A
:1008FC00034618460837BD4680BD80B485B000AFAE
:10090C0078600023FB737B6893F82130022B08D0AE
:10091C007B6804229A637B68002283F820200123E1
:10092C0020E07B681B681A687B681B6822F00E024B
:10093C001A607B681B681A687B681B6822F00102CE
:10094C001A607B681A6C7B68DB6B012101FA02F27E
:10095C005A607B68012283F821207B68002283F88F
:10096C002020FB7B18461437BD4680BC7047000026
:10097C0080B584B000AF78600023FB737B6893F87C
:10098C002130022B05D07B6804229A630123FB7370
:10099C0051E07B681B681A687B681B6822F00E02AA
:1009AC001A607B681B681A687B681B6822F001025E
:1009BC001A607B681B68224A934229D07B681B68AB
:1009CC00204A934222D07B681B681F4A93421AD05C
:1009DC007B681B681D4A934212D07B681B681C4ABB
:1009EC0093420AD07B681B681A4A934202D14FF497
:1009FC0080130EE04FF080730BE04FF4803308E06F
:100A0C004FF4805305E04FF4807302E0102300E0B4
:100A1C000123114A53607B68012283F821207B68F3
:100A2C00002283F820207B685B6B002B03D07B6853
:100A3C005B6B78689847FB7B18461037BD4680BDCA
:100A4C00080002401C0002403000024044000240FA
:100A5C00580002406C0002400000024080B48BB091
:100A6C0000AF7860396000237B6200233B6248E171
:100A7C0001227B6A02FA03F3FB613B681B68FA698B
:100A8C001340BB61BA69FB699A4240F037813B68FD
:100A9C005B68A34A93425ED0A14A934275D8A14A9F
:100AAC00934258D09F4A93426FD89F4A934252D058
:100ABC009D4A934269D89D4A93424CD09B4A93429B
:100ACC0063D89B4A934246D0994A93425DD8122BE5
:100ADC002AD8122B59D801A252F823F0630B000824
:100AEC003D0B00084F0B0008910B0008970B0008FA
:100AFC00970B0008970B0008970B0008970B000842
:100B0C00970B0008970B0008970B0008970B000831
:100B1C00970B0008970B0008970B0008970B000821
:100B2C00450B0008590B0008824A934213D02CE065
:100B3C003B68DB683B6229E03B68DB6804333B6263
:100B4C0024E03B68DB6808333B621FE03B68DB68F2
:100B5C000C333B621AE03B689B68002B02D10423E8
:100B6C003B6213E03B689B68012B05D108233B6279
:100B7C007B68FA691A6109E008233B627B68FA69B1
:100B8C005A6103E000233B6200E000BFBB69FF2B0E
:100B9C0001D87B6801E07B6804337B61BB69FF2B68
:100BAC0002D87B6A9B0002E07B6A083B9B003B619E
:100BBC007B691A680F213B6901FA03F3DB431A4086
:100BCC00396A3B6901FA03F31A437B691A603B6883
:100BDC005B6803F08053002B00F09080564B9B69B0
:100BEC00554A43F001039361534B9B6903F0010396
:100BFC00BB60BB68514A7B6A9B08023352F82330B6
:100C0C00FB607B6A03F003039B000F2202FA03F3E1
:100C1C00DB43FA681340FB607B68494A93420DD072
:100C2C007B68484A934207D07B68474A934201D17C
:100C3C00022304E0032302E0012300E000237A6A8C
:100C4C0002F0030292009340FA681343FB603B49A5
:100C5C007B6A9B080233FA6841F823203B685B6887
:100C6C0003F48033002B06D0384B1A683749BB6924
:100C7C0013430B6006E0354B1A68BB69DB43334901
:100C8C0013400B603B685B6803F40033002B06D009
:100C9C002E4B5A682D49BB6913434B6006E02B4B16
:100CAC005A68BB69DB43294913404B603B685B685E
:100CBC0003F48013002B06D0244B9A682349BB699C
:100CCC0013438B6006E0214B9A68BB69DB431F49D9
:100CDC0013408B603B685B6803F40013002B06D059
:100CEC001A4BDA681949BB691343CB6006E0174B02
:100CFC00DA68BB69DB4315491340CB607B6A01336F
:100D0C007B623B681A687B6A22FA03F3002B7FF440
:100D1C00AFAE00BF00BF2C37BD4680BC704700BFD4
:100D2C0000003210000031100000221000002110D1
:100D3C0000001210000011100010024000000140D1
:100D4C0000080140000C014000100140000401406B
:100D5C0080B483B000AF78600B467B8013467B7009
:100D6C007B78002B03D07A887B681A6103E07B8840
:100D7C001A047B681A6100BF0C37BD4680BC7047F3
:100D8C0080B485B000AF78600B467B807B68DB68F5
:100D9C00FB607A88FB6813401A04FB68D9437B8894
:100DAC000B401A437B681A6100BF1437BD4680BCE8
:100DBC007047000080B586B000AF78607B68002B70
:100DCC0001D101236CE27B681B6803F00103002B4B
:100DDC0000F08780924B5B6803F00C03042B0CD063
:100DEC008F4B5B6803F00C03082B12D18C4B5B68A8
:100DFC0003F48033B3F5803F0BD1894B1B6803F4AC
:100E0C000033002B6CD07B685B68002B68D101230E
:100E1C0046E27B685B68B3F5803F06D1804B1B686C
:100E2C007F4A43F4803313602EE07B685B68002BB1
:100E3C000CD17B4B1B687A4A23F480331360784BBC
:100E4C001B68774A23F4802313601DE07B685B6882
:100E5C00B3F5A02F0CD1724B1B68714A43F480235D
:100E6C0013606F4B1B686E4A43F4803313600BE0C6
:100E7C006B4B1B686A4A23F480331360684B1B6806
:100E8C00674A23F4802313607B685B68002B13D0C4
:100E9C00FFF71CFC386108E0FFF718FC02463B69C1
:100EAC00D31A642B01D90323FAE15D4B1B6803F4BD
:100EBC000033002BF0D014E0FFF708FC386108E099
:100ECC00FFF704FC02463B69D31A642B01D90323B8
:100EDC00E6E1534B1B6803F40033002BF0D100E028
:100EEC0000BF7B681B6803F00203002B63D04C4BE4
:100EFC005B6803F00C03002B0BD0494B5B6803F0D1
:100F0C000C03082B1CD1464B5B6803F48033002B7D
:100F1C0016D1434B1B6803F00203002B05D07B68F2
:100F2C001B69012B01D00123BAE13D4B1B6823F057
:100F3C00F8027B685B69DB00394913430B603AE0CC
:100F4C007B681B69002B20D0364B01221A60FFF7FF
:100F5C00BDFB386108E0FFF7B9FB02463B69D31AC9
:100F6C00022B01D903239BE12D4B1B6803F00203D9
:100F7C00002BF0D02A4B1B6823F0F8027B685B69CE
:100F8C00DB00274913430B6015E0264B00221A6047
:100F9C00FFF79CFB386108E0FFF798FB02463B69C2
:100FAC00D31A022B01D903237AE11D4B1B6803F0E2
:100FBC000203002BF0D17B681B6803F00803002BA5
:100FCC003AD07B689B69002B19D0174B01221A6011
:100FDC00FFF77CFB386108E0FFF778FB02463B69C2
:100FEC00D31A022B01D903235AE10D4B5B6A03F090
:100FFC000203002BF0D0012000F0D8FA1CE00A4BC1
:10100C0000221A60FFF762FB38610FE0FFF75EFB0E
:10101C0002463B69D31A022B08D9032340E100BFD7
:10102C000010024000004242800442429E4B5B6A28
:10103C0003F00203002BE9D17B681B6803F0040367
:10104C00002B00F0A6800023FB75974BDB6903F0A7
:10105C008053002B0DD1944BDB69934A43F08053A2
:10106C00D361914BDB6903F08053BB60BB680123F8
:10107C00FB758E4B1B6803F48073002B18D18B4BC4
:10108C001B688A4A43F480731360FFF71FFB3861B7
:10109C0008E0FFF71BFB02463B69D31A642B01D90E
:1010AC000323FDE0814B1B6803F48073002BF0D00D
:1010BC007B68DB68012B06D17B4B1B6A7A4A43F0B9
:1010CC00010313622DE07B68DB68002B0CD1764B9F
:1010DC001B6A754A23F001031362734B1B6A724A35
:1010EC0023F0040313621CE07B68DB68052B0CD136
:1010FC006D4B1B6A6C4A43F0040313626A4B1B6A08
:10110C00694A43F0010313620BE0674B1B6A664AA2
:10111C0023F001031362644B1B6A634A23F004033C
:10112C0013627B68DB68002B15D0FFF7CFFA3861B0
:10113C000AE0FFF7CBFA02463B69D31A41F2883238
:10114C00934201D90323ABE0574B1B6A03F0020314
:10115C00002BEED014E0FFF7B9FA38610AE0FFF784
:10116C00B5FA02463B69D31A41F28832934201D94F
:10117C00032395E04C4B1B6A03F00203002BEED1CA
:10118C00FB7D012B05D1484BDB69474A23F080538B
:10119C00D3617B68DB69002B00F08180424B5B687C
:1011AC0003F00C03082B61D07B68DB69022B46D162
:1011BC003F4B00221A60FFF789FA386108E0FFF70D
:1011CC0085FA02463B69D31A022B01D9032367E047
:1011DC00354B1B6803F00073002BF0D17B681B6A46
:1011EC00B3F5803F08D1304B5B6823F400327B6849
:1011FC009B682D4913434B602B4B5B6823F4741293
:10120C007B68196A7B685B6A0B43274913434B6005
:10121C00274B01221A60FFF759FA386108E0FFF7F3
:10122C0055FA02463B69D31A022B01D9032337E046
:10123C001D4B1B6803F00073002BF0D02FE01C4BF0
:10124C0000221A60FFF742FA386108E0FFF73EFA15
:10125C0002463B69D31A022B01D9032320E0124B1F
:10126C001B6803F00073002BF0D118E07B68DB697E
:10127C00012B01D1012313E00B4B5B68FB60FB6876
:10128C0003F480327B681B6A9A4206D1FB6803F434
:10129C0070127B685B6A9A4201D0012300E0002344
:1012AC0018461837BD4680BD001002400070004043
:1012BC006000424280B584B000AF786039607B68D2
:1012CC00002B01D10123D0E06A4B1B6803F007030C
:1012DC003A689A4210D9674B1B6823F0070265499C
:1012EC003B6813430B60634B1B6803F007033A68BE
:1012FC009A4201D00123B8E07B681B6803F002031B
:10130C00002B20D07B681B6803F00403002B05D056
:10131C00594B5B68584A43F4E06353607B681B6825
:10132C0003F00803002B05D0534B5B68524A43F47F
:10133C0060535360504B5B6823F0F0027B689B68F2
:10134C004D4913434B607B681B6803F00103002B72
:10135C0040D07B685B68012B07D1474B1B6803F4BB
:10136C000033002B15D101237FE07B685B68022BD7
:10137C0007D1414B1B6803F00073002B09D10123EB
:10138C0073E03D4B1B6803F00203002B01D10123DA
:10139C006BE0394B5B6823F003027B685B68364972
:1013AC0013434B60FFF792F9F8600AE0FFF78EF9F0
:1013BC000246FB68D31A41F28832934201D90323C7
:1013CC0053E02D4B5B6803F00C027B685B689B0061
:1013DC009A42EBD1274B1B6803F007033A689A42F9
:1013EC0010D2244B1B6823F0070222493B6813439D
:1013FC000B60204B1B6803F007033A689A4201D03C
:10140C00012332E07B681B6803F00403002B08D037
:10141C00194B5B6823F4E0627B68DB681649134365
:10142C004B607B681B6803F00803002B09D0124B40
:10143C005B6823F460527B681B69DB000E49134325
:10144C004B6000F021F802460B4B5B681B0903F064
:10145C000F030A49CB5C22FA03F3094A1360094BC8
:10146C001B681846FFF7F0F8002318461037BD46E6
:10147C0080BD00BF0020024000100240A41F0008E5
:10148C00040000200800002090B48AB000AF2A4B62
:10149C003C1D0FCB84E80F0040F201233B8000235E
:1014AC00FB610023BB6100237B6200237B61002373
:1014BC003B62224B5B68FB61FB6903F00C03042B62
:1014CC0002D0082B03D02DE01D4B3B622DE0FB69B5
:1014DC009B0C03F00F0307F12802134413F8243C70
:1014EC007B61FB6903F48033002B13D0134B5B68D7
:1014FC005B0C03F0010307F12802134413F8283C9A
:10150C00BB617B690E4A02FB03F2BB69B2FBF3F3CE
:10151C007B6204E07B690B4A02FB03F37B627B6A10
:10152C003B6202E0064B3B6200BF3B6A1846283721
:10153C00BD4690BC704700BF941F000800100240CD
:10154C0000127A0000093D0080B400AF024B1B680A
:10155C001846BD4680BC70470400002080B500AF23
:10156C00FFF7F2FF0246054B5B681B0A03F007030B
:10157C000349CB5C22FA03F3184680BD00100240ED
:10158C00B41F000880B500AFFFF7DEFF0246054B25
:10159C005B68DB0A03F007030349CB5C22FA03F315
:1015AC00184680BD00100240B41F000880B485B0FE
:1015BC0000AF78600A4B1B680A4AA2FB03235B0A44
:1015CC007A6802FB03F3FB6000BFFB685A1EFA60EB
:1015DC00002BF9D100BF00BF1437BD4680BC70474B
:1015EC0004000020D34D621080B582B000AF78604B
:1015FC007B68002B01D101233FE07B6893F83D30E1
:10160C00DBB2002B06D17B68002283F83C20786883
:10161C00FEF752FF7B68242283F83D207B681B6811
:10162C00DA687B681B6822F40052DA60786800F094
:10163C00E5FB7B681B681A697B681B6822F4904287
:10164C001A617B681B685A697B681B6822F02A0246
:10165C005A617B681B68DA687B681B6842F400522D
:10166C00DA607B6800221A647B68202283F83D20B4
:10167C007B68202283F83E20002318460837BD469D
:10168C0080BD80B485B000AFF860B9601346FB80B4
:10169C00FB6893F83D30DBB2202B30D1BB68002BBC
:1016AC0002D0FB88002B01D1012329E0FB6893F8C1
:1016BC003C30012B01D1022322E0FB68012283F88C
:1016CC003C20FB68BA681A62FB68FA889A84FB684B
:1016DC00FA88DA84FB6800221A64FB68212283F8FA
:1016EC003D20FB68002283F83C20FB681B68DA680D
:1016FC00FB681B6842F08002DA60002300E00223E2
:10170C0018461437BD4680BC704780B584B000AF16
:10171C00F860B9601346FB80FB6893F83E30DBB28F
:10172C00202B1DD1BB68002B02D0FB88002B01D1D4
:10173C00012316E0FB6893F83C30012B01D1022306
:10174C000FE0FB68012283F83C20FB6800221A633F
:10175C00FB881A46B968F86800F0C6F9034600E041
:10176C00022318461037BD4680BD000080B58AB0F4
:10177C0000AF78607B681B681B687B627B681B68AA
:10178C00DB683B627B681B685B69FB610023BB61A8
:10179C0000237B617B6A03F00F03BB61BB69002BE9
:1017AC000DD17B6A03F02003002B08D03B6A03F0B9
:1017BC002003002B03D0786800F076FA7BE1BB693C
:1017CC00002B00F0B180FB6903F00103002B05D165
:1017DC003B6A03F49073002B00F0A6807B6A03F045
:1017EC000103002B0AD03B6A03F48073002B05D055
:1017FC007B681B6C43F001027B681A647B6A03F004
:10180C000403002B0AD0FB6903F00103002B05D065
:10181C007B681B6C43F002027B681A647B6A03F0E2
:10182C000203002B0AD0FB6903F00103002B05D047
:10183C007B681B6C43F004027B681A647B6A03F0C0
:10184C000803002B0FD03B6A03F02003002B04D1BC
:10185C00FB6903F00103002B05D07B681B6C43F084
:10186C0008027B681A647B681B6C002B00F01E81DD
:10187C007B6A03F02003002B07D03B6A03F02003A4
:10188C00002B02D0786800F00FFA7B681B685B694C
:10189C0003F04003002B14BF01230023DBB27B6158
:1018AC007B681B6C03F00803002B02D17B69002BB7
:1018BC0031D0786800F051F97B681B685B6903F0E4
:1018CC004003002B23D07B681B685A697B681B681C
:1018DC0022F040025A617B689B6B002B13D07B6813
:1018EC009B6B764A5A637B689B6B1846FFF740F8F4
:1018FC000346002B16D07B689B6B5B6B7A68926BF4
:10190C00104698470EE0786800F0DAF80AE078683C
:10191C0000F0D6F806E0786800F0D2F87B68002278
:10192C001A64C3E000BFC1E07B681B6B012B40F065
:10193C00A1807B6A03F01003002B00F09B803B6AB4
:10194C0003F01003002B00F095800023FB607B68F4
:10195C001B681B68FB607B681B685B68FB60FB6833
:10196C007B681B685B6903F04003002B4ED07B68DF
:10197C009B6B1B685B683B823B8A002B00F098805A
:10198C007B689B8D3A8A9A4280F092807B683A8A77
:10199C00DA857B689B6B9B69202B2BD07B681B6843
:1019AC00DA687B681B6822F48072DA607B681B68DB
:1019BC005A697B681B6822F001025A617B681B68BC
:1019CC005A697B681B6822F040025A617B682022AE
:1019DC0083F83E207B6800221A637B681B68DA68F8
:1019EC007B681B6822F01002DA607B689B6B1846E0
:1019FC00FEF783FF7B689A8D7B68DB8D9BB2D31AD5
:101A0C009BB21946786800F064F851E07B689A8DB7
:101A1C007B68DB8D9BB2D31A7B827B68DB8D9BB2A0
:101A2C00002B47D07B8A002B44D07B681B68DA687C
:101A3C007B681B6822F49072DA607B681B685A69B9
:101A4C007B681B6822F001025A617B68202283F8B4
:101A5C003E207B6800221A637B681B68DA687B680F
:101A6C001B6822F01002DA607B8A1946786800F055
:101A7C0030F81FE07B6A03F08003002B08D03B6A30
:101A8C0003F08003002B03D0786800F0A6F812E076
:101A9C007B6A03F04003002B0DD03B6A03F040033C
:101AAC00002B08D0786800F0E7F804E000BF02E0F3
:101ABC0000BF00E000BF2837BD4680BDBF1B00083B
:101ACC0080B483B000AF786000BF0C37BD4680BCDB
:101ADC00704780B483B000AF78600B467B8000BF4A
:101AEC000C37BD4680BC704780B485B000AFF86041
:101AFC00B9601346FB80FB68BA689A62FB68FA8887
:101B0C009A85FB68FA88DA85FB6800221A64FB6800
:101B1C00222283F83E20FB68002283F83C20FB68DD
:101B2C001B68DA68FB681B6842F48072DA60FB6839
:101B3C001B685A69FB681B6842F001025A61FB681A
:101B4C001B68DA68FB681B6842F02002DA6000232D
:101B5C0018461437BD4680BC704780B483B000AFC4
:101B6C0078607B681B68DA687B681B6822F490726B
:101B7C00DA607B681B685A697B681B6822F001027B
:101B8C005A617B681B6B012B07D17B681B68DA6879
:101B9C007B681B6822F01002DA607B68202283F8D5
:101BAC003E207B6800221A6300BF0C37BD4680BC08
:101BBC00704780B584B000AF78607B685B6AFB606F
:101BCC00FB680022DA85FB680022DA84F868FFF7EC
:101BDC0077FF00BF1037BD4680BD80B485B000AF25
:101BEC0078607B6893F83D30DBB2212B3ED17B686B
:101BFC009B68B3F5805F14D17B681B69002B10D1F7
:101C0C007B681B6AFB60FB681B881A467B681B6839
:101C1C00C2F308025A607B681B6A9A1C7B681A62C2
:101C2C0008E07B681B6A591C7A6811621A787B6819
:101C3C001B685A607B68DB8C9BB2013B9BB27A6859
:101C4C001946D184002B0FD17B681B68DA687B683E
:101C5C001B6822F08002DA607B681B68DA687B689C
:101C6C001B6842F04002DA60002300E002231846B1
:101C7C001437BD4680BC704780B582B000AF786029
:101C8C007B681B68DA687B681B6822F04002DA60AC
:101C9C007B68202283F83D207868FEF7B1FB002397
:101CAC0018460837BD4680BD80B586B000AF786059
:101CBC007B6893F83E30DBB2222B40F099807B6836
:101CCC009B68B3F5805F17D17B681B69002B13D120
:101CDC0000237B617B689B6A3B617B681B685B684C
:101CEC009BB2C3F308039AB23B691A807B689B6A68
:101CFC009A1C7B689A6226E07B689B6A7B61002356
:101D0C003B617B689B68B3F5805F07D07B689B6801
:101D1C00002B0AD17B681B69002B06D17B681B68E2
:101D2C005B68DAB27B691A7008E07B681B685B68D9
:101D3C00DBB203F07F03DAB27B691A707B689B6AB3
:101D4C005A1C7B689A627B68DB8D9BB2013B9BB211
:101D5C007A681946D185002B48D17B681B68DA68F4
:101D6C007B681B6822F02002DA607B681B68DA68EB
:101D7C007B681B6822F48072DA607B681B685A6986
:101D8C007B681B6822F001025A617B68202283F871
:101D9C003E207B681B6B012B23D17B6800221A63CE
:101DAC007B681B68DA687B681B6822F01002DA60BB
:101DBC007B681B681B6803F01003102B0AD10023EF
:101DCC00FB607B681B681B68FB607B681B685B683F
:101DDC00FB60FB687B689B8D19467868FFF779FE82
:101DEC0002E07868FEF7E8FA002302E0002300E046
:101DFC00022318461837BD4680BD000080B584B05C
:101E0C0000AF78607B681B681B6923F440517B68CA
:101E1C00DA687B681B680A431A617B689A687B687E
:101E2C001B691A437B685B691343BB607B681B6847
:101E3C00DB6823F4B05323F00C037A681268B9689A
:101E4C000B43D3607B681B685B6923F440717B6830
:101E5C009A697B681B680A435A617B681B682C4A29
:101E6C00934203D1FFF78EFBF86002E0FFF776FB9D
:101E7C00F860FA6813469B0013449A001A447B6876
:101E8C005B689B00B2FBF3F3224AA2FB03235B09C2
:101E9C001901FA6813469B0013449A001A447B6894
:101EAC005B689B00B2FBF3F21A4BA3FB02035B09CA
:101EBC00642000FB03F3D31A1B013233154AA2FB37
:101ECC0003235B0903F0F0031944FA6813469B00E3
:101EDC0013449A001A447B685B689B00B2FBF3F2D4
:101EEC000C4BA3FB02035B09642000FB03F3D31A26
:101EFC001B013233074AA2FB03235B0903F00F02D9
:101F0C007B681B680A449A6000BF1037BD4680BDD1
:101F1C00003801401F85EB5170B500260C4D0D4C5F
:101F2C00641BA410A64209D100F022F800260A4D29
:101F3C000A4C641BA410A64205D170BD55F8043B95
:101F4C0098470136EEE755F8043B98470136F2E71F
:101F5C00BC1F0008BC1F0008BC1F0008C01F0008E5
:101F6C0003460244934200D1704703F8011BF9E782
:101F7C00F8B500BFF8BC08BC9E467047F8B500BF6A
:081F8C00F8BC08BC9E4670473A
:101F940002030405060708090A0B0C0D0E0F1010A6
:101FA4000000000000000000010203040607080905
:081FB40000000000010203041B
:041FBC0031010008E7
:041FC0000D01000807
:101FC400010000000024F4001000000001000000E3
:04000005080005DD0D
:00000001FF
